:0400000007EF00F016
:0A0008005F8294ED36F00BEF37F045
:02200000E803F3
:0E200800026E8482849002504CEC36F012007E
:10201800000102030405060708092A002B202020D6
:102028002A2A4672617365206573636F6E646964FA
:1020380061203A2D29202A2A00486F6C6120416CC2
:10204800756D6E6F73005045534F3A2000424F54E0
:10205800312000424F543100424F543200424F5415
:0B2068003300424F5434004B6700006F
:106C24005B50D8B412005B06120005000000FFFFA1
:106C3400040A20FF0101815000F0010E00018B6F56
:106C440000F01200026E8492849002504CEC36F0F4
:106C540012000001B051B111D8B41200B007D8A08D
:106C6400B1071200000E8A6E000E816EF00E936E54
:106C7400F19EF180F290F2861200D59ED59CD59AB1
:106C8400D596D580D582D584D20ED66E480ED76ED1
:106C9400F28A1200016E0F0E8C1684840150F00BE0
:106CA4008C1284940F0E8C1684840138F00B8C1291
:106CB40084941200CD90CD92CD84CD96CF0ECD1676
:106CC400CD9ECD9C1B0ECE6ED10ECF6E9E909D8020
:106CD400F28C12007EEC36F0959295903FEC36F0F3
:106CE400D58E5CEC36F0CD80F28E34EC36F06DEC63
:106CF40039F075EC3BF0FDD7000E896E000E8A6EFC
:106D0400000E8B6E000E8C6E000E8D6E9268936872
:106D140094680C0E956E000E966E070EB46E0F0EF0
:106D2400C16E12000600F2A405D0F294D20ED66E03
:106D3400480ED76E9EA00DD09E901B0ECE6ED10E27
:106D4400CF6E12EC36F02BEC36F0F2B01DEC36F0D0
:106D5400F2905F921100036E035004EC10F0000EE9
:106D6400046E000E056E000E066E000E076E010E18
:106D74000426000E0522062207220750061007E10A
:106D8400E80E045C030E0558D8B01200F0D71200C8
:106D9400036E038E035024EC36F0000E046E000ED6
:106DA400056E000E066E000E076E010E0426000E20
:106DB4000522062207220750061007E1100E045C84
:106DC400270E0558D8B01200F0D7120080CF03F078
:106DD40092CF04F092800E0EC16EAD0EC06EC280D2
:106DE400C282C2B2FED7C2900F0EC16E03C089FF29
:106DF40004C092FFC4CF05F0066A0550066E056A0A
:106E0400C3500526000E062205C001F006C002F09C
:106E140012002E0EF66E6C0EF76E000EF86E00EE7B
:106E2400A4F010EE0CF00900F5CFEEFFE550E150B0
:106E3400FAE1000EF66E200EF76E000EF86E0900F1
:106E4400F5CF5DF00900F5CF5EF000EE60F0440E82
:106E5400EE6AE806FDE15C6A5B6A5F905F92000E91
:106E6400F86E00016CEF36F021D003C0F6FF04C0C9
:106E7400F7FF0800F55004EC10F0000E056E000E4C
:106E8400066E000E076E000E086E010E0526000E3B
:106E94000622072208220850071006E1E80E055CC6
:106EA400030E0658D8A0F1D7034A042A03C0F6FFFC
:106EB40004C0F7FF0800F5500009D8B41200D5D774
:106EC400E8EC36F001C007F002C008F0096A0A6A6B
:106ED400000ECDEC38F007C080F008C081F009C086
:106EE40082F00AC083F09A0E056EF90E066E790ED2
:106EF400076E440E086E80C001F081C002F082C0AB
:106F040003F083C004F057EC3EF001C01AF002C055
:106F14001BF003C01CF004C01DF0000E1E6EC00E5A
:106F24001F6E7F0E206E440E216E31EC3AF01AC0B3
:106F34007CF01BC07DF01CC07EF01DC07FF07CC0C7
:106F440011F07DC012F07EC013F07FC014F00AEC83
:106F540038F011C033F012C034F013C035F014C04F
:106F640036F01200000E406E3AAE0AD03A1E391EB8
:106F7400381E376C000E382239223A22010E406E38
:106F84003EAE08D03E1E3D1E3C1E3B6C000E3C2215
:106F94003D223E223B503C103D103E10D8B424D03C
:106FA400010E3F6E06D0D8903B363C363D363E3619
:106FB4003F2A3EAEF8D73B50375C3C5038583D50E2
:106FC40039583E503A58D8A008D03B50375E3C5010
:106FD400385A3D50395A3E503A5AD8903E323D3292
:106FE4003C323B323F2EE7D74050D8B408D03A1E4B
:0C6FF400391E381E376C000E382239227E
:107000003A2237C037F038C038F039C039F03AC0CA
:107010003AF01200133414341A6E1A50D8A409D05E
:10702000000E116E000E126E000E136E000E146E26
:10703000120011C015F012C016F013C017F014C0E2
:1070400018F0200E05D0D8901832173216321532AB
:10705000E82EF9D71550196E138EFF0E1116FF0E7C
:107060001216FF0E1316000E1416960E1A5E1AAEA6
:107070000DD01A50800A970FD8A0D2D7D8901432CA
:107080001332123211321A3EF9D70DD01F0E1A6484
:1070900007D0C6D7D89011361236133614361A06D2
:1070A0001A50D8A4F7D71950D8B408D0141E131EFC
:1070B000121E116C000E12221322142211C011F0A4
:1070C00012C012F013C013F014C014F01200000E1E
:1070D0004A6E48AE0AD0481E471E461E456C000E3A
:1070E000462247224822010E4A6E44AE0AD0441E70
:1070F000431E421E416C000E422243224422010ED6
:107100004A1A000E4B6E000E4C6E000E4D6E000EB5
:107110004E6E4550461047104810D8B42AD0010E84
:10712000496E06D0D8904536463647364836492A05
:1071300048AEF8D7D8904B364C364D364E36455083
:10714000415C465042584750435848504458D8A094
:1071500009D04550415E4650425A4750435A485024
:10716000445A4B80D8904832473246324532492EF5
:10717000E1D74A50D8B408D04E1E4D1E4C1E4B6C61
:10718000000E4C224D224E224BC041F04CC042F02A
:107190004DC043F04EC044F012000F6E0F50D8A403
:1071A0000AAE1AD007C00BF008C00CF009C00DF0F1
:1071B0000AC00EF00B1E0C1E0D1E0E1E0B2A000E1A
:1071C0000C220D220E220BC011F00CC012F00DC0CB
:1071D00013F00EC014F008D007C011F008C012F070
:1071E00009C013F00AC014F00750081009100A1063
:1071F000D8A409D0000E076E000E086E000E096EAE
:10720000000E0A6E1200960E106E06D0102AD8904C
:107210001432133212321132000E11140B6E000EA2
:1072200012140C6E000E13140D6EFE0E14140E6E5E
:107230000B500C100D100E10D8B40DD0E7D7102A3B
:10724000010E1126000E122213221422D89014329D
:10725000133212321132000E11140B6E000E121482
:107260000C6E000E13140D6EFF0E14140E6E0B50E8
:107270000C100D100E10D8B407D0E1D71006D8901E
:10728000113612361336143613BE03D0020E1060B8
:10729000F5D710A0139ED890103210C00BF00C6AD6
:1072A0000D6A0E6A0BC00EF00D6A0C6A0B6A0B5069
:1072B00011120C5012120D5013120E5014120F50C6
:1072C000D8A40AAE01D0148E11C007F012C008F085
:1072D00013C009F014C00AF012000F0E9516969212
:1072E00096909694000E0001B16F1E0EB06F000EC6
:1072F000036E000E046E000E056E000E066E010E8B
:107300000326000E042205220622065008E1A00EE4
:10731000035C860E0458010E0558D8A0F0D7020E63
:1073200024EC36F0000E0001B16F010EB06F000EBC
:10733000076E000E086E000E096E000E0A6E010E3A
:107340000726000E082209220A220A5008E1A00E90
:10735000075C860E0858010E0958D8A0F0D7280EF1
:1073600024EC36F0000E0001B16F010EB06F000E7C
:107370000B6E000E0C6E000E0D6E000E0E6E010EEA
:107380000B26000E0C220D220E220E5008E1A00E3C
:107390000B5C860E0C58010E0D58D8A0F0D70C0EC1
:1073A00024EC36F0000E0001B16F010EB06F000E3C
:1073B0000F6E000E106E000E116E000E126E010E9A
:1073C0000F26000E102211221222125008E1A00EE8
:1073D0000F5C860E1058010E1158D8A0F0D7010E80
:1073E00024EC36F0000E0001B16F010EB06F000EFC
:1073F000136E000E146E000E156E000E166E010E4A
:107400001326000E142215221622165008E1A00E93
:10741000135C860E1458010E1558D8A0F0D7060E2E
:1074200024EC36F0000E0001B16F010EB06F000EBB
:10743000176E000E186E000E196E000E1A6E010EF9
:107440001726000E182219221A221A5009E1A00E3E
:10745000175C860E1858010E1958D8B01200EFD7D5
:1074600012001D50800B2A6E1D501D24316E1CBE53
:1074700031803150D8B40DD03128D8A408D0000EB6
:107480001A6E000E1B6E000E1C6E000E1D6E1C8E02
:1074900006D0000E1A6E000E1B6E000E1C6E000E43
:1074A0001D6E2150800B2A1A21502124326E20BEDD
:1074B00032803250D8B40DD03228D8A408D0000E73
:1074C0001E6E000E1F6E000E206E000E216E208EAE
:1074D00006D0000E1E6E000E1F6E000E206E000EF7
:1074E000216E1E501F1020102110D8A417D0000E9E
:1074F0001A6E000E1B6E000E1C6E000E1D6E800EAE
:107500001C127F0E1D122A501D121AC01AF01BC029
:107510001BF01CC01CF01DC01DF012003150D8A47F
:1075200009D0000E1A6E000E1B6E000E1C6E000EAF
:107530001D6E1200325031C022F0236A225E000E0E
:10754000235A7F0E22242B6E000E23202C6E1AC08D
:1075500026F01BC027F01CC028F01DC029F0000E2B
:107560001A6E000E1B6E000E1C6E000E1D6E000EBD
:107570002D6E000E2E6E000E2F6E000E306E000E61
:10758000326E28D03250D8B411D0D8902636273653
:1075900028362936D8901A361B361C361D3630BE92
:1075A0001A80D8902D362E362F3630361E50265C57
:1075B0001F5027582050285821502958D8A009D0AA
:1075C000308C1E50265E1F50275A2050285A2150BA
:1075D000295A322A190E3264D5D72650271028107E
:1075E0002910D8B411D02D800FD0D8901A361B3660
:1075F0001C361D3630BE1A80D8902D362E362F36CA
:1076000030362B06D8A02C061CAEEFD7000E326EFB
:1076100030AE17D0FF0E2D14226EFF0E2E14236EE7
:10762000FF0E2F14246E7F0E3014256E225023106F
:1076300024102510D8B403D0010E326E02D01AB037
:10764000FBD73250D8B41FD0010E1A26000E1B22D1
:107650001C221D221DA017D01AC022F01BC023F02F
:107660001CC024F01DC025F02534253224322332DD
:10767000223222C01AF023C01BF024C01CF025C007
:107680001DF02B4A2C2A2CBE10D02C5003E12B28A5
:10769000D8A00BD0000E2C6E2B68000E1A6E000EB8
:1076A0001B6E000E1C6E000E1D6E2CBE05D02C50E5
:1076B00011E12B04D8B00ED0000E2C6E000E2B6EF4
:1076C000000E1A6E000E1B6E000E1C6E000E1D6E5C
:1076D000000E2A6E2BC031F031A002D01C8E01D0DA
:1076E0001C9ED89031301D6E0ED7000ECAEC36F0BD
:1076F0004E0E036E200E046E36EC37F0640E456EAF
:10770000000E466E000E476E000E486EE80E3B6E91
:10771000030E3C6E000E3D6E000E3E6E62EC37F0C6
:1077200033C037F034C038F035C039F036C03AF0E5
:10773000B4EC37F037C041F038C042F039C043F004
:107740003AC044F067EC38F041C04FF042C050F00E
:1077500043C051F044C052F04FC007F050C008F091
:1077600051C009F052C00AF0010ECDEC38F007C04C
:1077700074F008C075F009C076F00AC077F0E80E22
:107780003B6E030E3C6E000E3D6E000E3E6E62ECD4
:1077900037F033C037F034C038F035C039F036C078
:1077A0003AF0B4EC37F037C057F038C058F039C071
:1077B00059F03AC05AF00A0E456E000E466E000EA1
:1077C000476E000E486E640E3B6E000E3C6E000E5F
:1077D0003D6E000E3E6E57C037F058C038F059C0AD
:1077E00039F05AC03AF0B4EC37F037C041F038C045
:1077F00042F039C043F03AC044F067EC38F041C081
:1078000007F042C008F043C009F044C00AF0010E7E
:10781000CDEC38F007C070F008C071F009C072F00C
:107820000AC073F0E80E3B6E030E3C6E000E3D6E18
:10783000000E3E6E62EC37F033C037F034C038F0E3
:1078400035C039F036C03AF0B4EC37F037C057F0F5
:1078500038C058F039C059F03AC05AF0640E3B6E47
:10786000000E3C6E000E3D6E000E3E6E57C037F0AF
:1078700058C038F059C039F05AC03AF0B4EC37F07B
:1078800037C053F038C054F039C055F03AC056F004
:107890000A0E3B6E000E3C6E000E3D6E000E3E6EFC
:1078A00053C037F054C038F055C039F056C03AF0E4
:1078B000B4EC37F037C007F038C008F039C009F031
:1078C0003AC00AF0010ECDEC38F007C06CF008C0E9
:1078D0006DF009C06EF00AC06FF0000E056E000E6C
:1078E000066E400E076E420E086E74C001F075C041
:1078F00002F076C003F077C004F0D1EC3CF001C098
:1079000011F002C012F003C013F004C014F00AEC2E
:1079100038F01150ADEC36F0000E056E000E066E1C
:10792000400E076E420E086E70C001F071C002F08A
:1079300072C003F073C004F0D1EC3CF001C011F050
:1079400002C012F003C013F004C014F00AEC38F0C7
:107950001150ADEC36F0000E056E000E066E400EB6
:10796000076E420E086E6CC001F06DC002F06EC072
:1079700003F06FC004F0D1EC3CF001C011F002C084
:1079800012F003C013F004C014F00AEC38F01150E8
:10799000ADEC36F06F0E036E200E046E36EC37F051
:1079A00012000450800B0D6E045004240F6E03BEB1
:1079B0000F800F50D8B40DD00F28D8A408D0000ED7
:1079C000016E000E026E000E036E000E046E038E3A
:1079D00006D0000E016E000E026E000E036E000E49
:1079E000046E0850800B0E6E0D500E18D8A40D8C2E
:1079F000085008240E6E07BE0E800E50D8B40DD06D
:107A00000E28D8A408D0000E056E000E066E000EDB
:107A1000076E000E086E078E06D0000E056E000E73
:107A2000066E000E076E000E086E0F500E5CD8B08A
:107A300022D00DAC02D0800E0D1A0FC010F00EC077
:107A40000FF010C00EF001C010F005C001F010C022
:107A500005F002C010F006C002F010C006F003C02E
:107A600010F007C003F010C007F004C010F008C009
:107A700004F010C008F0000E106E0F500EC009F098
:107A80000A6A095E000E0A5A0ABE2CD00A5004E1A6
:107A90001A0E095CD8A026D0015002100310041061
:107AA000D8B402D0010E01D0000E106E000E016E8F
:107AB000000E026E000E036E000E046E0EC00FF07C
:107AC00015D010A005D0D89010300109106E02D04A
:107AD000D890103201B0108E0434043203320232D6
:107AE00001320F2A0E500F5CD8A0EBD70DBC28D066
:107AF0000F50D8A409D0000E016E000E026E000EC9
:107B0000036E000E046E120005500126065002227C
:107B1000075003220850042204A071D010A005D001
:107B2000D89010300109106E02D0D890103201B0F8
:107B3000108E043404320332023201320F2A5FD035
:107B40000550015C06500258075003580450800A43
:107B5000096E0850800A0958D8B025D00150055C3C
:107B6000096E025006580A6E035007580B6E0450F7
:107B700008580C6EFF0E0924016EFF0E0A20026EDB
:107B8000FF0E0B20036EFF0E0C20046E800E0D1AEC
:107B9000106C1050D8A40FD0010E0126000E022246
:107BA0000322042208D00550015E0650025A0750F5
:107BB000035A0850045A0150021003100410D8A4AC
:107BC0001CD01050D8A419D0000E016E000E026E09
:107BD000000E036E000E046E1200D89001360236BD
:107BE0000336043610BE018010A002D0D88001D028
:107BF000D89010360F50D8A40F0603AEEED7000E63
:107C00000E6E10AE0BD010C009F07F0E0916D8B45E
:107C100003D0010E0E6E02D001B0FBD70E50D8B4C7
:107C200020D0010E0126000E02220322042204A00D
:107C300018D001C009F002C00AF003C00BF004C064
:107C40000CF00C340C320B320A32093209C001F04C
:107C50000AC002F00BC003F00CC004F00F28D8A437
:107C60000F2A0F28D8B403D00F50D8A40DD0000E7F
:107C7000016E000E026E000E036E000E046E0F50B9
:107C8000D8A402D0000E0D6E0FA002D0038E01D03A
:107C9000039ED8900F30046E0DBE048E01C001F01B
:107CA00002C002F003C003F004C004F0120004504C
:107CB000800B0D6E04500424136E03BE138013500A
:107CC000D8B40DD01328D8A408D0000E016E000E31
:107CD000026E000E036E000E046E038E08D0000EBE
:107CE000016E000E026E000E036E000E046E085050
:107CF000800B0D1A08500824126E07BE1280125015
:107D0000D8B40DD01228D8A408D0000E056E000EED
:107D1000066E000E076E000E086E078E08D0000E6D
:107D2000056E000E066E000E076E000E086E1250F5
:107D3000D8B403D01350D8A409D0000E016E000EA1
:107D4000026E000E036E000E046E12000750010258
:107D5000F3CF18F0F4CF19F018500E6E0F6A106AB6
:107D6000116A1950146E156A166A176A06500202D3
:107D7000F3CF18F0F4CF19F018500E26000E0F2292
:107D80001022112219501426000E15221622172235
:107D900005500302F3CF18F0F4CF19F018500E2657
:107DA000000E0F221022112219501426000E152247
:107DB0001622172210C011F00FC010F00EC00FF0E5
:107DC0000E6A05500202F3CF18F0F4CF19F01850E4
:107DD0000E2619500F22000E1022000E11220650FE
:107DE0000102F3CF18F0F4CF19F018500E261950F5
:107DF0000F22000E1022000E112210C011F00FC031
:107E000010F00EC00FF00E6A05500102F3CF18F00B
:107E1000F4CF19F018500E2619500F22000E102220
:107E2000000E112207500202F3CF18F0F4CF19F020
:107E30001850142619501522000E1622000E172273
:107E400006500302F3CF18F0F4CF19F0185014269F
:107E500019501522000E1622000E17220750030299
:107E6000F3CF18F0F4CF19F01850096E19500A6EBC
:107E70000B6A0C6A0BC00CF00AC00BF009C00AF0C8
:107E8000096A095014260A5015220B5016220C506C
:107E900017220EC009F00FC00AF010C00BF011C07D
:107EA0000CF0190E05D0D8900C320B320A32093280
:107EB000E82EF9D7095014260A5015220B50162225
:107EC0000C50172210C011F00FC010F00EC00FF0B0
:107ED0000E6A125013C009F00A6A0926000E0A221F
:107EE000820E0924186EFF0E0A20196E0FD0D8904A
:107EF000143615361636173611BE1480D8900E3645
:107F00000F36103611361806D8A0190616AEEFD760
:107F1000000E126E11AE17D0FF0E0E14096EFF0E7A
:107F20000F140A6EFF0E10140B6E7F0E11140C6EE0
:107F300009500A100B100C10D8B403D0010E126EA9
:107F400002D014B0FBD71250D8B41FD0010E1426A3
:107F5000000E15221622172217A017D014C009F000
:107F600015C00AF016C00BF017C00CF00C340C3220
:107F70000B320A32093209C014F00AC015F00BC0E6
:107F800016F00CC017F0184A192A19BE0DD0195056
:107F900003E11828D8A008D0000E146E000E156E4C
:107FA000800E166E7F0E20D019BE05D019500EE13E
:107FB0001804D8B00BD0000E146E000E156E000E13
:107FC000166E000E176E000E0D6E0FD018C013F057
:107FD000FF0E1416FF0E15167F0E1616000E17163E
:107FE00013B0168ED8901330176E0D50171214C0A0
:107FF00001F015C002F016C003F017C004F0120023
:020000040020DA
:08000000FFFFFFFFFFFFFFFF00
:020000040030CA
:0E000000240E3F1EFF8181FF0FC00FE00F4056
:020000040000FA
:00000E01F1
